:020000040800F2
:10000000500C0020890100087F190008BF16000865
:100010007D1900088F020008692100080000000017
:10002000000000000000000000000000451D000866
:100030009102000800000000431D0008471D000851
:10004000A3010008A3010008A3010008A301000800
:10005000A3010008A3010008A3010008A3010008F0
:10006000A3010008A3010008A3010008A3010008E0
:10007000A3010008A3010008A3010008A3010008D0
:10008000A3010008A3010008A3010008A3010008C0
:10009000A3010008A3010008A3010008A3010008B0
:1000A000A3010008A3010008A3010008A3010008A0
:1000B000A3010008A3010008A3010008A301000890
:1000C000A3010008A3010008A3010008A301000880
:1000D000A3010008A30100085D210008A301000896
:1000E000A3010008A3010008A301000800F002F822
:1000F00000F03AF80AA090E8000C82448344AAF188
:100100000107DA4501D100F02FF8AFF2090EBAE885
:100110000F0013F0010F18BFFB1A43F0010318473B
:100120003830000058300000103A24BF78C878C139
:10013000FAD8520724BF30C830C144BF04680C60ED
:10014000704700000023002400250026103A28BF35
:1001500078C1FBD8520728BF30C148BF0B60704739
:100160001FB51FBD10B510BD00F05CF81146FFF7BC
:10017000F7FF02F021F800F07AF803B4FFF7F2FF7E
:1001800003BC00F07DF8000009488047094800479B
:10019000FEE7FEE7FEE7FEE7FEE7FEE7FEE7FEE737
:1001A000FEE7FEE704480549054A064B7047000094
:1001B000A91D0008ED00000850060020500C00208A
:1001C00050080020500800204FF0000200B51346F0
:1001D00094469646203922BFA0E80C50A0E80C5067
:1001E000B1F12001BFF4F7AF090728BFA0E80C5018
:1001F00048BF0CC05DF804EB890028BF40F8042B11
:1002000008BF704748BF20F8022B11F0804F18BF7D
:1002100000F8012B704770477047704700487047DF
:10022000F00500207546FFF7F9FFAE460500694668
:10023000534620F00700854618B020B5FFF7B2FFFF
:10024000BDE820404FF000064FF000074FF00008D7
:100250004FF0000B21F00701AC46ACE8C009ACE858
:10026000C009ACE8C009ACE8C0098D46704710B5BC
:100270000446AFF300802046BDE81040FFF77DBF85
:1002800001491820ABBEFEE7260002007047FEE7DA
:10029000704772B6FEE710B590F8211000220229CF
:1002A00005D00421816380F82020012010BD016861
:1002B0000B6823F00E030B6001680B6823F0010349
:1002C0000B6090F84030C46B012101FA03F36360C6
:1002D00080F8211080F82020104610BD10B590F84D
:1002E00021100024022903D00421816301243DE070
:1002F00001680A6822F00E020A6001680A6822F0AA
:1003000001020A601A4A0168914201D1012121E0EB
:10031000174A1432914201D110211BE0144A2832AD
:10032000914201D1891515E0114A3C32914201D127
:1003300089140FE00E4A5032914202D14FF48031BD
:1003400008E00B4A6432914202D14FF4801101E07F
:100350004FF08071064A083A5160012180F821105F
:10036000002180F82010416B01B18847204610BD64
:10037000080002402DE9F84FDFF8B8910024A9F1F8
:10038000040B23460F2709F1040AABF1040EC9E060
:100390000125A5402A40AA427DD1674ED1F804C06C
:1003A000ACEB0608B44532D014DCBCF1030F3AD0F4
:1003B00009DCBCF1000F2AD0BCF1010F1CD0BCF14C
:1003C000020F31D11DE0BCF1110F17D0BCF1120F9B
:1003D0002AD119E0B8F5881F19D006DCB8F5803F9E
:1003E00015D0B8F5801F1FD111E0B8F5001F0ED051
:1003F000B8F5041F18D10AE0CB6815E0CB681B1DC7
:1004000012E0CB6808330FE0CB680C330CE08B684C
:100410002BB1012B4FF0080303D0456104E0042306
:1004200002E0056100E00023FF2A01D8064601E052
:1004300000F104064FEA840501D9A5F12005D6F89C
:10044000008007FA05FC28EA0C0803FA05F548EADB
:100450000508C6F800804D68ED0062D5374DAE69DD
:1004600046F00106AE61AD6924F0030605F0010512
:100470000095334D06EB050CDCF80850A607360F47
:1004800007FA06F825EA0805DFF8B880404503D1E9
:100490004FF0000817E044E0DFF8AC80404502D19F
:1004A0004FF001080FE0DFF8A480404502D14FF083
:1004B000020808E0DFF89880404502D14FF00308B9
:1004C00001E04FF0040808FA06F848EA0508CCF8FD
:1004D00008804D68D9F80060ED024D4601D51643FD
:1004E00000E096432E604D68DAF80060AD02554694
:1004F00001D5164300E096432E604D68DBF800609E
:10050000AD035D4601D5164300E096432E604D686D
:10051000DEF80060ED03754601D5164300E0964312
:100520002E60641C0D682A46E5407FF431AFBDE8BB
:10053000F88F000008040140000011100010024074
:100540000000014000080140000C01400010014083
:10055000001401408068084000D0012070470AB1B3
:10056000016170470904FBE701488068704700009B
:100570001800002070B5040025D094F83D00002537
:1005800020B984F83C50204600F0B8F8242084F8C4
:100590003D002068016821F00101016020680168C8
:1005A00041F4004101602068016821F400410160CC
:1005B00000F01EFA4D4A6168914201D84C4900E0B2
:1005C0004C49884201D2012070BD4B492368B0FBE1
:1005D000F1F15E6826F03F060E435E606368934269
:1005E00006D94FF4967359434FF47A73B1FBF3F184
:1005F0002368491C1E6A26F03F0631431962616870
:10060000914210D84900401EB0FBF1F2521CC2F3D7
:100610000B02042A01D2042022E0B0FBF1F0401CBE
:10062000C0F30B001CE0A268F2B301EBC10303EBC3
:100630000116431EB3FBF6F35B1C43F480431B051A
:1006400049D092B301EBC10202EB0111401EB0FB95
:10065000F1F0401CC0F30B0040F4804040F4004037
:100660002168CA694CF6FF739A431043C861D4E904
:10067000071001432068026822F0C00211430160A4
:10068000D4E9030101432068826848F2FF339A43AA
:1006900011438160D4E9050108432168CA6822F04A
:1006A000FF021043C86001E00EE016E02068016818
:1006B00041F0010101602564202084F83D0025639C
:1006C00084F83E50002070BD01EB4106431EB3FB91
:1006D000F6F35B1CB3E70120C2E701EB4101401ECA
:1006E000B0FBF1F0401CC0F30B00B7E7A08601009F
:1006F00080841E0000093D0040420F0030B585B0E7
:10070000002100910191029103911E4D03681E4C3E
:10071000122103221D48AB4216D1A36943F00803FE
:10072000A361A369039203F008030493C023CDE9F6
:1007300000316946FFF71EFEE06940F40010E061F9
:10074000E06900F4001019E0114DAB4217D1A36924
:1007500043F00803A361A369039203F00803049321
:100760004FF44063CDE900316946FFF703FEE069CD
:1007700040F48000E061E06900F48000049005B07E
:1007800030BD00000054004000100240000C014049
:100790000058004002488168027811448160704727
:1007A00018000020074810B5016841F010010160F1
:1007B000032000F075F80F2000F006F800F024F890
:1007C000002010BD0020024070B50D4D04464FF4CE
:1007D0007A712878B1FBF0F00A490968B1FBF0F0B2
:1007E00000F0DCFA48B9102C07D200222146501E36
:1007F00000F036F800206C6070BD012070BD000074
:1008000018000020240000200C4808B5816941F040
:1008100001018161816901F001010091C16941F02B
:100820008051C161C06900F0805000900448416867
:1008300021F0E06141F00071416008BD001002400C
:1008400000000140002809DB00F01F020121914057
:100850004009800000F1E020C0F80011704700005E
:10086000F0B40E4B1B680C46C3F30223C3F107051B
:10087000042D00D90425191D072901D2002300E009
:10088000DB1E012606FA05F1491E214099409E40D3
:10089000761E16403143F0BC01F067BC0CED00E061
:1008A000064900F0070208684FF6FF03184040EAC7
:1008B0000220034A10430860704700000CED00E07E
:1008C0000000FA052DE9F0470F46050061D0434EC0
:1008D000306800F00700B84209D2306820F0070005
:1008E00038433060306800F00700B84251D12868C2
:1008F0003B4C810712D5400703D5606840F4E060A7
:1009000060602878000703D5606840F4605060603C
:100910006068A96820F0F000084360602878C0078C
:1009200028D06868012810D02168022810D08907D3
:1009300000292EDA616821F0030101436160FFF7AD
:1009400013FE804641F288390DE021688903EFE704
:100950008901EDE7FFF708FEA0EB0801494502D940
:100960000320BDE8F0876068696800F00C00B0EB18
:10097000810FEFD1306800F00700B8420BD9306822
:1009800020F0070038433060306800F00700B842BC
:1009900001D00120E5E72878400705D56068E968BF
:1009A00020F4E060084360602878000706D560689E
:1009B000296920F4605040EAC100606000F038F816
:1009C0006168084AC1F30311515CC84006490860D8
:1009D00006480068FFF7F8FE0020C2E7002002404A
:1009E0000010024040310008240000201C000020BC
:1009F0000448054900684968044AC1F30221515C72
:100A0000C840704724000020001002405031000808
:100A10000448054900684968044AC1F3C221515C91
:100A2000C8407047240000200010024050310008E8
:100A30000E4A51680E4801F00C03042B11D0082B0C
:100A40000FD10C48C1F38343C903C05C0AD5516878
:100A5000084AC1F34041921E515C054A5043B0FB25
:100A6000F1F070470449484370470000001002400D
:100A700000127A003031000800093D002DE9F84FDE
:100A8000040070D02078C04DC00749D06868C0F31A
:100A90008100012807D06868C0F38100022809D1CD
:100AA0006868C00306D52868800339D560680028C7
:100AB000E7D035E06068B0F5803F0BD010B1B0F5FD
:100AC000A02F11D0286820F480302860286820F4F6
:100AD000802002E0286840F480302860606890B18F
:100AE000FFF742FD06460AE0286840F480202860AF
:100AF000F0E700BFFFF738FD801B642873D8286833
:100B00008003F7D50CE0FFF72FFD064605E000BF98
:100B1000FFF72AFD801B6428F0D828688003F7D4EB
:100B200020789A4E80074FF001094FF0000839D520
:100B3000686810F00C0F07D06868C0F381000228C5
:100B400009D16868C00306D42868800714D52069D5
:100B5000012808D110E02069B0B1C6F80090FFF775
:100B600003FD074605E00AE1FFF7FEFCC01B022873
:100B7000C4D828688007F7D52868616920F0F80094
:100B800040EAC10028600DE0C6F80080FFF7ECFCE9
:100B9000074604E0FFF7E8FCC01B022823D82868BA
:100BA0008007F7D4207800072CD57948A169D9B1FE
:100BB000C0F80090FFF7D8FC074604E0FFF7D4FC2C
:100BC000C01B02280FD8686A8007F7D571484FF418
:100BD000FA510068B0FBF1F0009000BF0098411E90
:100BE0000091FAD20EE080E0C0F80080FFF7BCFC74
:100BF000074604E0FFF7B8FCC01B022875D8686AF6
:100C00008007F7D42078400760D5E8690027C00046
:100C100008D4E86940F08050E861E869012700F0F5
:100C2000805000905C480168C90513D40168834670
:100C300041F480710160FFF797FC824606E000BF37
:100C4000FFF792FCA0EB0A0064284ED8DBF8000006
:100C5000C005F5D5E06801280AD008B1052813D0F1
:100C6000286A20F001002862286A20F0040002E0CF
:100C7000286A40F001002862E06841F2883B98B1A0
:100C8000FFF772FC82460BE0286A40F004002862FD
:100C9000EEE700BFFFF768FCA0EB0A0159455AD800
:100CA000286A8007F6D50CE0FFF75EFC824605E077
:100CB000FFF75AFCA0EB0A0159454CD8286A800777
:100CC000F6D41FB1E86920F08050E861E06988B38C
:100CD0006968C1F38101022944D00228C6F8608006
:100CE00004D0FFF741FC044638E034E0FFF73CFC59
:100CF000074604E0FFF738FCC01B02282BD8286801
:100D00008001F7D4206AB0F5803F05D16868A168FA
:100D100020F4003008436860D4E90801084369689A
:100D200021F4741108436860C6F86090FFF71CFC5A
:100D3000044606E025E000BFFFF716FC001B022872
:100D400009D828688001F7D51BE000BFFFF70CFC2D
:100D5000001B022802D90320BDE8F88F2868800113
:100D6000F4D40EE00128F7D06868226A00F48031DC
:100D7000914204D1616A00F47010884201D00120D0
:100D8000EAE70020E8E700000010024000004242CD
:100D900080044242240000200070004010B5401E34
:100DA000B0F1807F01D3012010BD4FF0E0246061DD
:100DB0000F21601701F0D9F90020A0610720206100
:100DC000002010BD10B590F83C20012A22D001224D
:100DD00080F83C20CA688C6822F4407222434C6838
:100DE00022F4806222430C6822F4006222430C69E0
:100DF00022F4805222434C6922F400522243C969F2
:100E0000002322F480420A4301684A6480F83C309F
:100E1000002010BD022010BD70B590F83C20012AC2
:100E200026D0012480F83C40022280F83D2003684F
:100E30005A689D6822F070060A6832435A600D4B6A
:100E400002689A4208D0B2F1804F05D00A4B9A420C
:100E500002D00A4B9A4204D1496825F08003194315
:100E6000916080F83D40002180F83C10084670BD3C
:100E7000022070BD002C014000040040000800402A
:100E80002DE9F0410D46040003D094F83D0018B15F
:100E900008E00120BDE8F081002084F83C002046F5
:100EA00000F040F8022084F83D002068816844F298
:100EB000070291438160211D206800F077FF2268BE
:100EC00090689169166A2B68AF69034340F203305A
:100ED000814341EA0721A868EF6908434FF6FC41C6
:100EE0008843E96840EA0720014328692F6A000126
:100EF00040EA0730084369686D6926F0220646EA31
:100F00000515294393602268906154F8460B0162ED
:100F1000012004F81F09E0752076E0762077A0759F
:100F20000020B7E700B585B0002100910191029142
:100F30000391026818491948B2F1804F19D0184B33
:100F40009A4214D1CA6942F00202CA61CA6902F027
:100F5000020204928A6942F004028A61896901F0FE
:100F600004010491C02100916946FFF703FA05B01E
:100F700000BDCA6942F00102CA61CA6902F00102F9
:100F800004928A6942F004028A61896901F00401CD
:100F900004910321E7E7000000100240000801402F
:100FA0000004004070B590F83E60044690F83F5051
:100FB00090F8423090F84320022021B104290ED04D
:100FC000012E1BD114E0012E18D1012B16D184F86B
:100FD0003E0084F8420001220021206820E0012D1B
:100FE0000CD1012A0AD184F83F0084F8430014E0B0
:100FF000012D03D1012B01D1012A01D0012070BDA7
:1010000084F83E0084F83F0084F8420084F84300EE
:1010100001220021206800F005FF01220421206840
:1010200000F000FF2068016841F00101016000202C
:1010300070BD000030B585B0002100910191029192
:1010400003910068104988421CD11048816941F021
:10105000040181618069022400F0040004904FF4CF
:101060008060CDE900040320094D039069462846BD
:10107000FFF780F9A002CDE90004694628460394F1
:10108000FFF778F905B030BD002C01400010024098
:101090000008014070B5044690F83C0000260D465B
:1010A00001280FD0012084F83C006AB1042A1DD029
:1010B000082A2FD00C2A3FD00126002084F83C00BB
:1010C000304670BD022070BD206800F0B9FE206877
:1010D000816941F0080181612068816921F0040182
:1010E0008161206881692A69114311E0206800F05C
:1010F000CFFE2068816941F40061816120688169C7
:1011000021F480618161206881692A6941EA0221B4
:101110008161D2E7206800F0E7FE2068C16941F0F4
:101120000801C1612068C16921F00401C161206822
:10113000C1692A69114311E0206800F001FF2068AD
:10114000C16941F40061C1612068C16921F4806115
:10115000C1612068C1692A6941EA0221C161ACE725
:1011600010B5040003D094F83D0010B107E0012051
:1011700010BD002084F83C00204600F01FF802203B
:1011800084F83D00211D206800F010FE012084F845
:10119000460084F83E0084F83F0084F8400084F85C
:1011A000410084F8420084F8430084F8440084F845
:1011B000450084F83D00002010BD000008B500681F
:1011C0000649884208D10648816941F4006181617D
:1011D000806900F40060009008BD0000002C014010
:1011E0000010024010B50446022249B104290ED075
:1011F000082913D094F84100012816D0012010BD11
:1012000094F83E000128F9D184F83E200FE094F8CC
:101210003F000128F2D184F83F2008E094F8400014
:101220000128EBD184F8402001E084F8412001221C
:10123000206800F0F7FD0F492068884203D1426C16
:1012400042F4004242642068884208D0B0F1804FE6
:1012500005D00949884202D00849884204D18168F2
:1012600001F00701062903D0016841F00101016086
:10127000002010BD002C0140000400400008004088
:1012800070477047F8B5016804460868CA684B693A
:1012900010F00F0F4FF0000559D003F0010602F4D3
:1012A0009077374365D0C10705D0D10503D5616C70
:1012B00041F001016164410705D5D90703D0616C94
:1012C00041F002016164810705D5D90703D0616C43
:1012D00041F004016164010707D502F020013143A8
:1012E00003D0616C41F008016164616C00293AD05F
:1012F000800604D5900602D5204600F072FE2068D4
:101300004069616CC0F38010090700D460B32046C7
:1013100000F040FE20684069400621D52068143066
:1013200050E8001F21F0400140E80012002AF5D1EA
:10133000E06BA8B16D494163E06BFEF7CFFF002879
:1013400011D0E06B416B01B0BDE8F0400847830667
:101350000FD593060DD52046BDE8F84000F041BEFC
:101360002046FFF78EFFF8BD2046FFF78AFF656431
:10137000F8BD266B2023012E7CD1C6067AD5D60671
:1013800078D508684868009048694FF00206400622
:1013900040D5E16B086840680004000CE8D0A28DDD
:1013A0008242E5D9E085886920282DD020680C305C
:1013B00050E8001F21F4807140E80012002AF5D1A6
:1013C0002068143050E8001F21F0010140E80012AD
:1013D000002AF5D12068143050E8001F21F04001A8
:1013E00040E80012002AF5D184F8423025632068D5
:1013F0000C3050E8001F21F0100140E80012002AD4
:10140000F5D1E06BFEF747FF6663A08DE18D401AD2
:1014100081B22AE0A08DE18D401A81B2E08D0028D2
:10142000A6D00029A4D022680C3252E8000F20F484
:10143000907042E80007002FF5D12068143050E882
:10144000002F22F0010240E80027002FF5D184F898
:101450004230256320680C3050E8002F22F0100243
:1014600040E80023002BF5D166632046FFF708FF14
:10147000F8BDFFE705062BD5150629D594F84100E0
:101480002128F5D1A068B0F5805F01D12069B0B105
:10149000206A411C2162216800784860E08C401E6F
:1014A0000004000CE084E3D12068C16821F08001D1
:1014B000C1602068C16841F04001C160D8E7206A7E
:1014C0000088C0F308004860206A801C2062E5E7BD
:1014D0004006CDD55006CBD5CA68204622F0400242
:1014E000CA6084F8413000F0E9F8C1E7851F0008C0
:1014F00070B5040004D094F84100002510B106E056
:10150000012070BD84F84050204600F023F82420CC
:1015100084F841002068C16821F40051C160204670
:1015200000F0C0FD2068016921F49041016120684C
:10153000416921F02A0141612068C16841F40051EC
:10154000C1606564202084F8410084F8420065632E
:10155000002070BD30B585B0002400940194029441
:1015600003940068184988422BD11848C16941F496
:101570000031C161C16901F400310491816941F018
:10158000040181618069124D00F004000490042080
:101590000090022001900320039069462846FEF740
:1015A000E9FE0820CDE90004694628460294FEF7CA
:1015B000E1FE002211462620FFF752F92620FFF710
:1015C00041F905B030BD0000004400400010024069
:1015D000000801402DE9F84F314988425DD1314D75
:1015E000314FAC1E2878DFF8C480DFF8C490DFF8F4
:1015F000C4A0DFF8C4B00626302822D1A068401C61
:10160000A06001F06AF800223B4601F07DF800225C
:10161000434600F0DDFE4A46534601F075F80246A7
:101620000B460020594600F0D3FE01F029F882B2A3
:101630002280042300212D20009600F011FB00F0F1
:1016400033FB2878312822D1A068401EA06001F029
:1016500044F800223B4601F057F80022434600F0D0
:10166000B7FE4A46534601F04FF802460B460020AB
:10167000594600F0ADFE01F003F882B22280042347
:1016800000212D20009600F0EBFA00F00DFB2878E9
:10169000322802D100F0AAFDFCE7BDE8F88F000077
:1016A000A80500200E0000200000244000A07B4080
:1016B000EC51B81E856B3440000059407047FEE77E
:1016C00070B586B000241C480094019402940394E1
:1016D000816941F020018161816901F0200104915B
:1016E000816941F004018161816901F00401049183
:1016F000816941F0080181618069104E00F00800A5
:101700004FF470450490002229463046FEF727FF2B
:101710001B20CDE90004694630460294FEF72AFEFC
:1017200001200095CDE9010402200390694630466E
:10173000FEF720FE06B070BD00100240000C014014
:101740000D4810B50B4901600C49416000214FF470
:1017500080428160C0E9031241618161C16101621F
:10176000FEF708FF002803D0BDE81040FEF791BD4A
:1017700010BD00000054004028040020A086010095
:101780000D4810B50B4901600C49416000214FF430
:1017900080428160C0E9031241618161C1610162DF
:1017A000FEF7E8FE002803D0BDE81040FEF771BD4B
:1017B00010BD0000005800407C040020A0860100FD
:1017C00010B592B000240F941C2168461094FEF7C7
:1017D000FBFC202107A8FEF7F7FC24482249016002
:1017E0004721C0E901146321C0E903144461846105
:1017F000FFF7B6FC08B1FEF74CFD0F940FA91B488C
:101800001094FFF709FB08B1FEF743FD6020CDE916
:101810000004029403940494059408226946134832
:101820000694FFF737FC08B1FEF733FD0C2269463A
:101830000E48FFF72FFC08B1FEF72BFD0794089424
:1018400009944FF400500A94CDE90B4007A90748CA
:101850000E94FFF7B7FA08B1FEF71BFD0348FFF738
:10186000E9FB12B010BD0000002C0140D0040020A4
:1018700010B58CB024216846FEF7A6FC002415485C
:1018800009944FF080410A9401600321C0E90114DA
:101890004FF6FF72C0E90324846100910120CDE975
:1018A000014003940494CDE9054007946946094832
:1018B0000894FFF7E5FA08B1FEF7EBFC099409A9D3
:1018C00004480A94FFF7A8FA002801D0FEF7E1FCCB
:1018D0000CB010BD1805002010B58CB0242168464E
:1018E000FEF772FC00241648099414490A9401601A
:1018F0000321C0E901144FF6FF72C0E9032484619B
:1019000000910120CDE9014003940494CDE9054004
:10191000079469460A480894FFF7B2FA08B1FEF73F
:10192000B8FC099409A906480A94FFF775FA00283B
:1019300001D0FEF7AEFC0CB010BD0000000400406A
:10194000600500200C4810B50A4901604FF416519B
:101950004160002181600C22C160C0E904128161F4
:10196000C161FFF7C5FD002803D0BDE81040FEF7B8
:1019700090BC10BD00440040A8050020FEE7FEE733
:1019800010B50021074C0A46002004EBC1131A547D
:10199000401CC0B28028FAD3491CC9B20829F3D32D
:1019A00010BD000028000020F0B50B4424E00446E0
:1019B00085181DE07F2C19D8002917DB3F2915DC7D
:1019C000CE1701EB56764FEAE60C0D4F26F00706D0
:1019D00007EBCC172744A1EB060E97F800C00126B1
:1019E00006FA0EF62CEA060C87F800C0641C24B236
:1019F000A542DFDC491C09B28B42D8DCF0BD0000F7
:101A00002800002010B500204FF47A720021491CF4
:101A10009142FCD3401C9042F8D3012000F058F9C9
:101A2000BDE81040012000F05BB970B50024064607
:101A3000802525FA04F0304000D0012000F050F954
:101A4000012000F045F9002000F042F9641CE4B2E6
:101A5000082CEED3012000F03BF9BDE870400020D7
:101A600000F036B910B5012000F03AF9012000F07D
:101A70002FF9002000F034F9BDE81040002000F0FC
:101A800027B910B5002000F02BF9012000F020F953
:101A9000BDE81040012000F023B910B5FFF7B2FFF8
:101AA000AE2000F025F9D52000F022F9802000F0CA
:101AB0001FF9A82000F01CF93F2000F019F9D320ED
:101AC00000F016F9002000F013F9402000F010F9A2
:101AD000A12000F00DF9C82000F00AF9DA2000F08A
:101AE00007F9122000F004F9812000F001F9CF205D
:101AF00000F0FEF8D92000F0FBF8F12000F0F8F833
:101B0000DB2000F0F5F8302000F0F2F8A42000F01F
:101B1000EFF8A62000F0ECF88D2000F0E9F8142092
:101B200000F0E6F8AF2000F0E3F8FFF729FFBDE88A
:101B3000104000F0B9B80246012000E05043491EB1
:101B4000FCD2704710B50C4640F0B00000F0D0F861
:101B5000102040EA141000F0CBF804F00F00BDE8AC
:101B6000104000F0C5B8000008B5082B0DD0062BBA
:101B70000AD10A4B02EB420203EB4202C03A009246
:101B80000823062200F00EF808BD054B03EB0212F5
:101B9000A2F50072102300920822F3E7F42E000849
:101BA000042900082DE9F04F1F4616460D468246CF
:101BB0000024FFF7F9FE7F1EF81707EB5070012194
:101BC000DFF898B001EBE00743E000203DE000BF04
:101BD0000AEB00037F2B36D8E91705EB5171CA10C9
:101BE00021F00701691A002D03DA521E083112B2E2
:101BF00009B202EB0409B9F1070F0ED8099A04FBE8
:101C000006F802440BEBC91E18F802201EF803C0A8
:101C10008A404CEA020C0EF803C009F10102072ABF
:101C200011D80BEBC91202EB0308099A04FB06FC5E
:101C3000024498F880301CF80220C1F10801CA4023
:101C4000134388F88030401CC0B2B042C0D3641C3B
:101C5000E4B2A742B9DCBDE8F08F00002800002004
:101C60002DE9F04700241D4690468A4681460A2702
:101C7000089E14E0291B0A20491EFFF75CFFB8FBF1
:101C8000F0F0B0FBF7F107FB110204FB069000B285
:101C9000334651463032FFF767FF641CE4B2AC4272
:101CA000E8D3BDE8F087000070B5084D002400219E
:101CB0002046FFF747FF05EBC410802100F029F80C
:101CC000641CE4B2082CF2D370BD00002800002090
:101CD00002464FF480710148FEF741BC000C014000
:101CE00002464FF400710148FEF739BC000C014078
:101CF00010B50446FFF7B6FE7820FFF796FE0020E9
:101D0000FFF793FE2046FFF790FEBDE81040FFF777
:101D1000B8BE70B50D460646FFF7A4FE7820FFF763
:101D200084FE4020FFF781FE002404E0305DFFF7D1
:101D30007CFE641CE4B2AC42F8D3BDE87040FFF70F
:101D4000A0BE70477047FEF725BD30B58FB0282183
:101D50006846FEF739FA14210AA8FEF735FA012180
:101D60000804CDE900100024029402250491CDE975
:101D700007504FF4E01009906846FEF77FFE08B167
:101D800072B6FEE70F20CDE90A054FF48060CDE979
:101D90000C4002210AA80E94FEF794FD002801D001
:101DA00072B6FEE70FB030BD70470000F0B50268B4
:101DB000194B1A4C1A4D4FF08047984205D0B84243
:101DC00003D0A04201D0A84203D122F070064A6895
:101DD0003243984205D0B84203D0A04201D0A84275
:101DE00003D122F44074CA6822434C6922F0800275
:101DF000224302608A68C2620A688262984201D104
:101E000009690163012141610169C90703D00169C1
:101E100021F001010161F0BD002C014000040040EF
:101E20000008004010B501F01F030121046A994029
:101E30008C430462016A9A401143016210BD0000A4
:101E400030B5036A026A22F00102026242688469C4
:101E500024F073050C682C4323F002058B682B4398
:101E60000A4DA8420BD123F00805CB6822F440723A
:101E70002B434D6923F0040315438A692A434260CA
:101E8000846149684163036230BD0000002C014059
:101E900030B5026A036A23F0100303624368846961
:101EA0000D6824F4E64444EA05248D6822F02002FB
:101EB00042EA05120B4DA8420ED1CD6822F08002F5
:101EC00042EA05124D6923F4406343EA85038D69B4
:101ED00022F0400243EA85034360846149688163DC
:101EE000026230BD002C014030B5036A026A22F460
:101EF000807202624268C46923F4007324F073059F
:101F00000C682C438D6843EA05230C4DA8420ED182
:101F1000CD6823F4006343EA05234D6922F440525F
:101F200042EA05128D6923F4806342EA0512426099
:101F3000C4614968C163036230BD0000002C0140E8
:101F400030B5046A026A22F4805202624268C369B0
:101F50000D6823F4E64343EA05238D6824F4005416
:101F600044EA0534064DA84204D14D6922F480426A
:101F700042EA85124260C36149680164046230BD6F
:101F8000002C014010B5406A0021C185C184FFF7D3
:101F900078F910BD01680C3151E8002F22F49072DD
:101FA00041E80023002BF5D10168143151E8002FDE
:101FB00022F0010241E80023002BF5D1016B012939
:101FC00009D101680C3151E8002F22F0100241E8DC
:101FD0000023002BF5D1202180F84210002101635D
:101FE000704708B590F84210222901D0022008BDA0
:101FF00082684FF480539A4201D1016921B1816A0C
:102000009A421BD04AB10AE00268816A5268C2F360
:1020100008020A80816A891C08E0026972B10268BC
:10202000526802F07F020A70816A491C8162C18D88
:10203000491E0904090CC18503D01BE002685268DF
:10204000F1E70168CA6822F02002CA600168CA6824
:1020500022F48072CA6001684A6922F001024A6172
:10206000202180F8421000214163026B012A03D035
:10207000FFF7B0FA002008BD016301680C3151E898
:10208000002F22F0100241E80023002BF5D1016857
:102090000A68D20602D50A6849680091818DFFF767
:1020A000EFF8E7E770B5044600680169E26821F4DB
:1020B0004051114301612169A068084361690843E7
:1020C0002168CA6841F20C639A430243CA602068DF
:1020D0004169A26921F44071114341611E492068A0
:1020E000884202D1FEF794FC01E0FEF781FC00EB90
:1020F000C00101EB0012606864218000B2FBF0F3C4
:10210000B3FBF1F36FF018067343B2FBF0F5B2FBCB
:10211000F0F605EB8305322303EB0515B5FBF1F56E
:10212000B6FBF1F605F0F00505EB0615B2FBF0F68F
:10213000B2FBF0F0B0FBF1F06FF01802504306EB89
:10214000800003EB0010B0FBF1F0216800F00F00FD
:102150002844886070BD0000003801400148FFF746
:1021600091B80000A8050020FEE70907090E002825
:1021700004DB00F1E02080F80014704700F00F004D
:1021800000F1E02080F8141D7047000010B5094CE4
:102190000020216800F09CF80146082000F0F2F8C9
:1021A0000120216800F094F80146BDE810400C20A1
:1021B00000F0E8B814000020FEF7F4FAFFF7C5FDC0
:1021C000FFF77EFAFFF754FBFFF786FBFFF7BAFB3A
:1021D000FFF7B6FAFFF7D4FAFFF7F2FA00F0C4F807
:1021E00000F0A0F8FFF759FCFEE700002DE9F041F0
:1021F000364C4FF4806529462046FEF7ABF9E614CD
:10220000012807D131462046FEF7A4F9012801D163
:10221000FFF7BCFF01212046FEF79CF9012807D1FA
:1022200002212046FEF796F931462046FEF792F944
:1022300029462046FEF78EF9012807D102212046C3
:10224000FEF788F931462046FEF784F90221204640
:10225000FEF780F9012807D101212046FEF77AF91F
:1022600029462046FEF776F931462046FEF772F9F8
:10227000012807D101212046FEF76CF929462046A6
:10228000FEF768F901212046FEF764F907460221AE
:102290002046FEF75FF9874201D1012700E00027C1
:1022A00029462046FEF756F9874201D1012500E074
:1022B000002531462046FEF74DF9854203D0BDE8A2
:1022C000F04100F071B8BDE8F0810000000C014061
:1022D00010B5114BB8B111480068406A00B258807F
:1022E0000A1A996848888B88101A00EB42004C88BB
:1022F000644202EB4404234403EB430318444B8839
:102300008B804A8010BD06480068406A00B2188081
:102310000A1A5968E6E70000000000206005002066
:102320001805002010B53C210B48FEF73BFE3C2170
:102330000A48FEF737FE0B48094943680A881A80A5
:1023400082680988118042680021518091808068EC
:102350004180818010BD000018050020600500202C
:10236000140000200000002010B508210448FEF7EA
:1023700039FFBDE810400C210148FEF733BF0000D3
:10238000D0040020074A126828B1042805D0082884
:1023900005D0116470475163704791637047D163F2
:1023A00070470000D004002010B500210846FFF758
:1023B0008FFF01460820FFF7E5FF00210120FFF70E
:1023C00087FF0146BDE810400C20FFF7DBBF00008F
:1023D0002DE9C04130B4DFF8A0C23CEA111418BFA7
:1023E0003CEA131400F0EC8081EA03051CEA1114A6
:1023F00044EAD57418BF1CEA131500F0C780A4EB9B
:1024000005044FF0004545EAC12145EAC32341EAEE
:10241000505143EA525304F17F74994204F5003459
:102420004FEAC0204FEAC22208BF904200F09C80D1
:102430004FEA13650FF24016765D4FEA134506FB2F
:1024400005F7C7F1807706FB07F74FEAD737A7FBF9
:1024500003687642C8F58038A7FB06CE38BFA8F1DE
:10246000010807FB08E64FF0000EA6FB028CE6FB16
:1024700003CEDCF1000CCEF1004E38BFAEF1010E00
:10248000A6FB0C584FF000074FF00005E6FB0E8747
:10249000A1FB08C6A0FB07CE16EB0E0645F1000512
:1024A000E1FB076515F1E04E7EBFA4F580345FEADD
:1024B00046066D4116F1800745F100054FEA1727E2
:1024C0004FEA066647EA0567A6F1DE46B6F1805F89
:1024D0004FEA15251FD9384624F0010C05EBC471CD
:1024E000BCF1FE6F01EB0C1102D8F0BCBDE800811D
:1024F00024425CBF01F5801E9EEAC47F02D4F0BC7A
:10250000BDE80081244238D4F0BCA1F1C041BDE84F
:10251000004100F0F1B94FEAD22242EA43524FEAB9
:10252000D323A7FB02864FEAD02040EA415007FBA5
:1025300003661EEA0E0F4FEAD12105FB026658BF63
:10254000A6EB0056B6EB00564FEA520E4EEAC37E9B
:1025500018EB0E0E56EB530EBDD518EB02085E417C
:102560007F1C55F10005B6E74FF480154FF00007CA
:102570004FF000064FF00008ADE7F0BC4FF0000050
:1025800001F1C04101F00041BDE8008111EA0C1FDA
:102590000CEA131500D00CE013EA0C1F00F02580A4
:1025A0004FF00000F0BC81EA030101F00041BDE8FA
:1025B0000081F0BCBDE8004181EA030100F09CB954
:1025C000F0BCBDE8004170B500F048F9097EFC3E62
:1025D00000F007B881EA03014FF0000001F000416C
:1025E000704781EA030100F087B9F0BCBDE8004103
:1025F0004FF0000021497047FFFDFBF9F7F5F4F2B9
:10260000F0EEEDEBE9E8E6E4E3E1E0DEDDDBDAD88D
:10261000D7D5D4D3D1D0CFCDCCCBCAC8C7C6C5C4EB
:10262000C2C1C0BFBEBDBCBBBAB9B8B7B6B5B4B302
:10263000B2B1B0AFAEADACABAAA9A8A8A7A6A5A4ED
:10264000A3A3A2A1A09F9F9E9D9C9C9B9A999998B1
:102650009797969595949393929191908F8F8E8E54
:102660008D8C8C8B8B8A89898888878786858584E1
:1026700084838382828181800000FF070000F87FCD
:102680004FEA1153A3F58063D3F11E03A8BFD3F122
:10269000200C08DB4FF0004242EAC12252EA5052BD
:1026A00032FA03F0704709420BD4102BC4BF00204C
:1026B000704703F5787CBCF1FF3F05D04FF0FF3049
:1026C00070474FF00000704770B500F0C7F800BFCA
:1026D0004992248000207047F0E710F0004248BF84
:1026E0004042B0FA80F310FA03F10AD0C3F11D039F
:1026F00003F580634FEA415002EB035202EBD12114
:1027000070474FF000007047DFF848C170B51CEA11
:10271000111E1EBF1CEA13159EEA0C0F95EA0C0F42
:1027200000F06F8081EA030423EA4C134EEAD47E62
:1027300021EA4C1141F4801143F48013AE44A1FB13
:10274000024CA0FB0365AEF17F7E361955EB0C05FC
:10275000A1FB034C4CF10003A0FB021C16EB0C0682
:10276000654153F10003094218BF46F0010613F416
:10277000007F0BD14FEA03314FEA0530340341EAC1
:10278000155140EA16506FF003020AE04FEAC321E8
:102790004FEAC520F40241EA555140EA56506FF025
:1027A000020202EB2E4201EB025585EACE710AD0FD
:1027B0005FEA440C18BF24F0004450F1000041F1DE
:1027C000000120EAD47040F2FE7C624500D270BD68
:1027D000A84214BF4FF080444FF04044002E08BF81
:1027E0000024BEF1806FA8BFA1F1C041BDE87040D8
:1027F00080F282804FF0000001F1C04101F0004101
:1028000070479EEA0C0F0CEA131518BF95EA0C0FDF
:1028100006D04FF0000081EA030E0EF0004170BDBB
:1028200000F01CF88900013E00F007B800F009B87C
:102830004FEA430C5FEA5C5C08D081EA030100F0D8
:102840005BB84FEA410C5FEA5C5CF6D14FF00000E8
:10285000014970470000FF070000F87F0EF1020EEB
:102860002EF0030E5EF8046B364205D4012A43EBCA
:10287000030515F5001F12D8012841EB010C1CF5CA
:10288000001F0CD80ED14FEAD17C15F5001F0CEBC0
:102890004C0C0CF1020C08BF4CEBD37C04E04FF065
:1028A000080C01E04FEAD37C0CEB4C0526FA05F648
:1028B00006F00706B6F1040C06D20EEB860CBDE856
:1028C00070404CF0010C6047DFE80CF0090B02028D
:1028D0004FF000414FF00000A1F5002170BD1946F6
:1028E0001046012851EB010418BFD4F5001484BF31
:1028F000002001F0004170BD0808A0F500114FEA6A
:1029000031017047000000000000000000000000DE
:1029100000000000000000F800000000000000338C
:102920003000000000160E00160E0000000000002F
:102930000000000040C07840C0784000043F04041C
:102940003F040400007088FC08300000001820FFDD
:10295000211E0000F008F000E018000000211C0318
:102960001E211E0000F00888700000001E21232494
:1029700019272110000000160E00000000000000C2
:1029800000000000000000E0180402000000000742
:102990001820400000020418E00000000040201849
:1029A00007000000404080F0804040000202010F1C
:1029B00001020200000000F0000000000101011F00
:1029C00001010100000000000000000000B07000E4
:1029D00000000000000000000000000000010101F4
:1029E0000101010100000000000000000030300083
:1029F000000000000000000080601804006018065D
:102A00000100000000E010080810E000000F102096
:102A100020100F00001010F8000000000020203FE0
:102A2000202000000070080808887000003028246A
:102A3000222130000030088888483000001820200B
:102A400020110E000000C02010F800000007042430
:102A5000243F240000F80888880808000019212075
:102A600020110E0000E0108888180000000F1120CF
:102A700020110E0000380808C83808000000003F88
:102A8000000000000070880808887000001C2221E7
:102A900021221C0000E010080810E0000000312294
:102AA00022110F00000000C0C00000000000003034
:102AB00030000000000000C0C0000000000080B036
:102AC0007000000000008040201008000001020497
:102AD00008102000404040404040400004040404EE
:102AE00004040400000810204080000000201008AA
:102AF00004020100007048080808F00000000030DF
:102B000036010000C030C828E810E000071827246C
:102B100023140B000000C038E0000000203C23021A
:102B20000227382008F8888888700000203F20207D
:102B300020110E00C03008080808380007182020AF
:102B40002010080008F808080810E000203F2020A6
:102B500020100F0008F88888E8081000203F202087
:102B60002320180008F88888E8081000203F20007B
:102B700003000000C03008080838000007182020B3
:102B8000221E020008F808000008F808203F210172
:102B900001213F20000808F8080800000020203F1D
:102BA0002020000000000808F8080800C08080808D
:102BB0007F00000008F888C028180800203F200186
:102BC0002638200008F8080000000000203F2020E0
:102BD0002020300008F8F800F8F80800203F003FF7
:102BE000003F200008F830C00008F808203F20000F
:102BF00007183F00E01008080810E0000F10202020
:102C000020100F0008F808080808F000203F2101F4
:102C100001010000E01008080810E0000F1824244B
:102C200038504F0008F8888888887000203F2000BE
:102C3000030C302000708808080838000038202174
:102C400021221C00180808F8080818000000203F7E
:102C50002000000008F808000008F808001F2020E5
:102C600020201F000878880000C8380800000738B6
:102C70000E010000F80800F80008F800033C070007
:102C8000073C0300081868808068180820302C036F
:102C9000032C30200838C800C83808000000203F46
:102CA0002000000010080808C83808002038262135
:102CB00020201800000000FE020202000000007F39
:102CC00040404000000C30C0000000000000000147
:102CD0000638C00000020202FE0000000040404032
:102CE0007F000000002010080408102000000000F1
:102CF00000000000000000000000000080808080D4
:102D000080808080000204080000000000000000B5
:102D10000000000000008080808000000019242254
:102D200022223F2008F8008080000000003F112090
:102D300020110E000000008080800000000E112095
:102D400020201100000000808088F800000E112073
:102D500020103F200000808080800000001F222281
:102D600022221300008080F0888888180020203FED
:102D7000202000000000808080808000006B949400
:102D80009493600008F8008080800000203F2100BC
:102D900000203F2000809898000000000020203F85
:102DA00020200000000000809898000000C0808073
:102DB000807F000008F8000080808000203F24020F
:102DC0002D302000000808F8000000000020203FFF
:102DD000202000008080808080808000203F2000B4
:102DE0003F20003F008080008080000000203F21C5
:102DF00000203F200000808080800000001F2020F5
:102E000020201F00808000808000000080FFA12023
:102E100020110E000000008080808000000E112034
:102E200020A0FF80808080008080800020203F21C3
:102E30002000010000008080808080000033242476
:102E400024241900008080E0808000000000001F22
:102E5000202000008080000000808000001F2020D3
:102E600020103F20808080000080808000010E3094
:102E70000806010080800080008080800F300C03F5
:102E80000C300F0000808000808080000020312EF8
:102E90000E312000808080000080808080818E70D4
:102EA0001806010000808080808080000021302C86
:102EB0002221300000000000807C0202000000009F
:102EC000003F404000000000FF0000000000000044
:102ED000FF0000000002027C800000000040403F34
:102EE00000000000008040408000008000000000E2
:102EF000000101000000000000000000002F0000A1
:102F000000000700070000147F147F1400242A7FAC
:102F10002A1200231308646200364955225000002B
:102F20000007000000001C224100000041221C009C
:102F30000014083E08140008083E0808000000A01D
:102F40006000000808080808000060600000002019
:102F500010080402003E5149453E0000427F4000F7
:102F6000004261514946002141454B31001814127D
:102F70007F10002745454539003C4A49493000014A
:102F80007109050300364949493600064949291E99
:102F900000003636000000005636000000081422FB
:102FA00041000014141414140000412214080002FB
:102FB00001510906003E4955592E007C1211127C20
:102FC000007F49494936003E41414122007F41414D
:102FD000221C007F49494941007F09090901003E3F
:102FE0004149497A007F0808087F0000417F41007D
:102FF000002040413F01007F08142241007F4040F3
:103000004040007F020C027F007F0408107F003EDA
:103010004141413E007F09090906003E4151215EC0
:10302000007F091929460046494949310001017FBD
:103030000101003F4040403F001F2040201F003F53
:103040004038403F00631408146300070870080705
:1030500000615149454300007F41410000020408DE
:103060001020000041417F000004020102040040E2
:1030700040404040000001020400002054545478B5
:10308000007F4844443800384444442000384444D5
:10309000487F00385454541800087E090102001873
:1030A000A4A4A47C007F080404780000447D4000B0
:1030B000004080847D00007F102844000000417F94
:1030C0004000007C04180478007C08040478003870
:1030D0004444443800FC242424180018242418FCF8
:1030E000007C0804040800485454542000043F4461
:1030F0004020003C4040207C001C2040201C003C24
:103100004030403C004428102844001CA0A0A07C73
:10311000004464544C440000087F41000000007FDC
:1031200000000000417F08000008040810080102A8
:1031300002030405060708090A0B0C0D0E0F1010F8
:103140000000000000000000010203040607080957
:103150000000000001020304783100080000002094
:103160002800000028010008A031000828000020E5
:10317000280C0000440100080000000000000000CE
:10318000000000000000000000000000000000003F
:1031900001000000100000000000000000127A0092
:04000005080000ED02
:00000001FF
