:020000040800F2
:10000000E80C002089010008A31E00081B19000845
:10001000A11E0008C303000801260008000000001C
:10002000000000000000000000000000A721000800
:10003000C503000800000000A5210008A921000850
:10004000A3010008A3010008A3010008A301000800
:10005000A3010008A3010008A3010008A3010008F0
:10006000A3010008A3010008A3010008A3010008E0
:10007000A3010008A3010008A3010008A3010008D0
:10008000A3010008A3010008A3010008A3010008C0
:10009000A3010008A3010008A3010008A3010008B0
:1000A000A3010008A3010008A3010008A3010008A0
:1000B000A3010008A3010008A3010008A301000890
:1000C000A3010008A3010008A3010008A301000880
:1000D000A3010008A3010008F5250008A3010008FA
:1000E000A3010008A3010008A301000800F002F822
:1000F00000F03AF80AA090E8000C82448344AAF188
:100100000107DA4501D100F02FF8AFF2090EBAE885
:100110000F0013F0010F18BFFB1A43F0010318473B
:100120004030000060300000103A24BF78C878C129
:10013000FAD8520724BF30C830C144BF04680C60ED
:10014000704700000023002400250026103A28BF35
:1001500078C1FBD8520728BF30C148BF0B60704739
:100160001FB51FBD10B510BD00F0F1F81146FFF727
:10017000F7FF02F087FA00F00FF903B4FFF7F2FF80
:1001800003BC00F017F90000094880470948004700
:10019000FEE7FEE7FEE7FEE7FEE7FEE7FEE7FEE737
:1001A000FEE7FEE704480549054A064B7047000094
:1001B0000B220008ED000008E8060020E80C0020F3
:1001C000E8080020E8080020032A40F2308010F000
:1001D000030C00F0158011F8013BBCF1020F6244E2
:1001E00098BF11F801CB00F8013B38BF11F8013B73
:1001F000A2F1040298BF00F801CB38BF00F8013B20
:1002000011F0030300F07180083AC0F0088051F843
:10021000043B083A51F804CBA0E80810F5E7121D9A
:100220005CBF51F8043B40F8043BAFF30080D207B9
:1002300024BF11F8013B11F801CB48BF11F8012B85
:1002400024BF00F8013B00F801CB48BF00F8012BA8
:1002500070474FF000020429C0F0128010F0030C28
:1002600000F01B80CCF1040CBCF1020F18BF00F8A9
:10027000012BA8BF20F8022BA1EB0C0100F00DB858
:100280005FEAC17C24BF00F8012B00F8012B48BFB6
:1002900000F8012B70474FF0000200B5134694465A
:1002A0009646203922BFA0E80C50A0E80C50B1F1CE
:1002B0002001BFF4F7AF090728BFA0E80C5048BFE2
:1002C0000CC05DF804EB890028BF40F8042B08BF80
:1002D000704748BF20F8022B11F0804F18BF00F87C
:1002E000012B704770477047704710B5203AC0F037
:1002F0000B80B1E81850203AA0E81850B1E8185027
:10030000A0E81850BFF4F5AF5FEA027C24BFB1E863
:100310001850A0E8185044BF18C918C0BDE81040D4
:100320005FEA827C24BF51F8043B40F8043B08BFDD
:100330007047D20728BF31F8023B48BF11F8012BA4
:1003400028BF20F8023B48BF00F8012B70477546D4
:1003500000F02CF8AE4605006946534620F0070031
:10036000854618B020B5FFF71DFFBDE820404FF0CF
:1003700000064FF000074FF000084FF0000B21F08F
:100380000701AC46ACE8C009ACE8C009ACE8C0095C
:10039000ACE8C0098D46704710B50446AFF3008045
:1003A0002046BDE81040FFF7E8BE00000048704757
:1003B0008406002001491820ABBEFEE7260002009B
:1003C0007047FEE7704772B6FEE710B590F821104F
:1003D0000022022905D00421816380F82020012019
:1003E00010BD01680B6823F00E030B6001680B68F9
:1003F00023F001030B6090F84030C46B012101FA37
:1004000003F3636080F8211080F82020104610BDAF
:1004100010B590F821100024022903D00421816333
:1004200001243DE001680A6822F00E020A600168BA
:100430000A6822F001020A601A4A0168914201D159
:10044000012121E0174A1432914201D110211BE011
:10045000144A2832914201D1891515E0114A3C32E3
:10046000914201D189140FE00E4A5032914202D1DB
:100470004FF4803108E00B4A6432914202D14FF4CC
:10048000801101E04FF08071064A083A5160012165
:1004900080F82110002180F82010416B01B18847BD
:1004A000204610BD0800024070B5044600F008F96F
:1004B0000546601C02D004480078044400F000F9AE
:1004C000401BA042FAD370BD280000202DE9F84F50
:1004D000DFF8B8910024A9F1040B23460F2709F196
:1004E000040AABF1040EC9E00125A5402A40AA4246
:1004F0007DD1674ED1F804C0ACEB0608B44532D0CC
:1005000014DCBCF1030F3AD009DCBCF1000F2AD097
:10051000BCF1010F1CD0BCF1020F31D11DE0BCF1C8
:10052000110F17D0BCF1120F2AD119E0B8F5881FAE
:1005300019D006DCB8F5803F15D0B8F5801F1FD163
:1005400011E0B8F5001F0ED0B8F5041F18D10AE06D
:10055000CB6815E0CB681B1D12E0CB6808330FE0B9
:10056000CB680C330CE08B682BB1012B4FF00803E8
:1005700003D0456104E0042302E0056100E00023AC
:10058000FF2A01D8064601E000F104064FEA84057F
:1005900001D9A5F12005D6F8008007FA05FC28EA64
:1005A0000C0803FA05F548EA0508C6F800804D680E
:1005B000ED0062D5374DAE6946F00106AE61AD691A
:1005C00024F0030605F001050095334D06EB050CFC
:1005D000DCF80850A607360F07FA06F825EA0805E2
:1005E000DFF8B880404503D14FF0000817E044E041
:1005F000DFF8AC80404502D14FF001080FE0DFF892
:10060000A480404502D14FF0020808E0DFF898804E
:10061000404502D14FF0030801E04FF0040808FA0A
:1006200006F848EA0508CCF808804D68D9F800605B
:10063000ED024D4601D5164300E096432E604D680D
:10064000DAF80060AD02554601D5164300E0964346
:100650002E604D68DBF80060AD035D4601D51643A2
:1006600000E096432E604D68DEF80060ED037546AD
:1006700001D5164300E096432E60641C0D682A469F
:10068000E5407FF431AFBDE8F88F00000804014079
:10069000000011100010024000000140000801405D
:1006A000000C014000100140001401408068084027
:1006B00000D0012070470AB1016170470904FBE7CF
:1006C00001488068704700002800002070B50400D1
:1006D00025D094F83D00002520B984F83C502046F0
:1006E00000F04EF9242084F83D002068016821F0D4
:1006F000010101602068016841F400410160206847
:10070000016821F40041016000F0B4FA4D4A6168CB
:10071000914201D84C4900E04C49884201D2012065
:1007200070BD4B492368B0FBF1F15E6826F03F06CF
:100730000E435E606368934206D94FF49673594343
:100740004FF47A73B1FBF3F12368491C1E6A26F05B
:100750003F06314319626168914210D84900401E3A
:10076000B0FBF1F2521CC2F30B02042A01D20420A6
:1007700022E0B0FBF1F0401CC0F30B001CE0A268CB
:10078000F2B301EBC10303EB0116431EB3FBF6F317
:100790005B1C43F480431B0549D092B301EBC102BB
:1007A00002EB0111401EB0FBF1F0401CC0F30B0046
:1007B00040F4804040F400402168CA694CF6FF7361
:1007C0009A431043C861D4E90710014320680268C6
:1007D00022F0C00211430160D4E903010143206803
:1007E000826848F2FF339A4311438160D4E90501DE
:1007F00008432168CA6822F0FF021043C86001E084
:100800000EE016E02068016841F0010101602564F6
:10081000202084F83D00256384F83E50002070BD00
:1008200001EB4106431EB3FBF6F35B1CB3E701206B
:10083000C2E701EB4101401EB0FBF1F0401CC0F3E8
:100840000B00B7E7A086010080841E0000093D0070
:1008500040420F002DE9F84F1F4690468A46044655
:10086000DDF82890FFF72CFF054694F83D0020287E
:100870007FD11923012240492046009501F0E0F87C
:10088000002876D194F83C00012872D0012084F829
:100890003C0020680168C90703D1016841F00101EB
:1008A00001602068016821F400610160212084F862
:1008B0003D00102084F83E0000262664C4F8248001
:1008C0006785608D20852D48E0622B464A4651465B
:1008D000204601F03BF890B920684169806900909A
:1008E00036E02A464946204601F050F950B1206CC6
:1008F000042804D12068016841F4007101600120DE
:10090000BDE8F88F606A216800780861606A401C61
:100910006062618D491E6185218D491E89B22185E4
:1009200022685369DB435B070BD451B10078106137
:10093000606A401C6062608D401E6085208D401E94
:1009400020852A464946204601F04EF80028CED19F
:10095000208D0028C5D154F83D0B016841F4007189
:100960000160202004F81E09E67766770020C7E7BB
:10097000FFE70220C4E70000020010000000FFFFB4
:1009800030B585B0002100910191029103911E4D77
:1009900003681E4C122103221D48AB4216D1A369E5
:1009A00043F00803A361A369039203F008030493CF
:1009B000C023CDE900316946FFF788FDE06940F4C6
:1009C0000010E061E06900F4001019E0114DAB4245
:1009D00017D1A36943F00803A361A369039203F04D
:1009E000080304934FF44063CDE900316946FFF7F3
:1009F0006DFDE06940F48000E061E06900F4800092
:100A0000049005B030BD00000054004000100240CA
:100A1000000C0140005800400248816802781144EF
:100A20008160704728000020074810B5016841F038
:100A300010010160032000F075F80F2000F006F8A7
:100A400000F024F8002010BD0020024070B50D4DCC
:100A500004464FF47A712878B1FBF0F00A4909682E
:100A6000B1FBF0F000F0DCFA48B9102C07D20022FC
:100A70002146501E00F036F800206C6070BD012049
:100A800070BD000028000020340000200C4808B58C
:100A9000816941F001018161816901F001010091E9
:100AA000C16941F08051C161C06900F0805000907F
:100AB0000448416821F0E06141F00071416008BDE7
:100AC0000010024000000140002809DB00F01F0276
:100AD000012191404009800000F1E020C0F80011A0
:100AE00070470000F0B40E4B1B680C46C3F30223A2
:100AF000C3F10705042D00D90425191D072901D2CA
:100B0000002300E0DB1E012606FA05F1491E214004
:100B100099409E40761E16403143F0BC01F071BDF5
:100B20000CED00E0064900F0070208684FF6FF03ED
:100B3000184040EA0220034A104308607047000052
:100B40000CED00E00000FA052DE9F0470F46050026
:100B500061D0434E306800F00700B84209D23068D7
:100B600020F0070038433060306800F00700B842DA
:100B700051D128683B4C810712D5400703D56068E6
:100B800040F4E06060602878000703D5606840F4B6
:100B9000605060606068A96820F0F0000843606001
:100BA0002878C00728D06868012810D0216802285A
:100BB00010D0890700292EDA616821F00301014372
:100BC0006160FFF77DFD804641F288390DE02168C4
:100BD0008903EFE78901EDE7FFF772FDA0EB08015C
:100BE000494502D90320BDE8F0876068696800F0D4
:100BF0000C00B0EB810FEFD1306800F00700B84275
:100C00000BD9306820F0070038433060306800F0BE
:100C10000700B84201D00120E5E72878400705D554
:100C20006068E96820F4E0600843606028780007A5
:100C300006D56068296920F4605040EAC100606010
:100C400000F038F86168084AC1F30311515CC840EC
:100C50000649086006480068FFF7F8FE0020C2E772
:100C600000200240001002404631000834000020FD
:100C70002C0000200448054900684968044AC1F373
:100C80000221515CC840704734000020001002402F
:100C9000563100080448054900684968044AC1F310
:100CA000C221515CC840704734000020001002404F
:100CB000563100080E4A51680E4801F00C03042B0F
:100CC00011D0082B0FD10C48C1F38343C903C05C7A
:100CD0000AD55168084AC1F34041921E515C054A49
:100CE0005043B0FBF1F0704704494843704700009F
:100CF0000010024000127A003631000800093D0061
:100D00002DE9F84F040070D02078C04DC00749D0BD
:100D10006868C0F38100012807D06868C0F38100CB
:100D2000022809D16868C00306D52868800339D530
:100D300060680028E7D035E06068B0F5803F0BD0F0
:100D400010B1B0F5A02F11D0286820F480302860B1
:100D5000286820F4802002E0286840F48030286071
:100D6000606890B1FFF7ACFC06460AE0286840F4E2
:100D700080202860F0E700BFFFF7A2FC801B6428FA
:100D800073D828688003F7D50CE0FFF799FC064676
:100D900005E000BFFFF794FC801B6428F0D82868AA
:100DA0008003F7D420789A4E80074FF001094FF066
:100DB000000839D5686810F00C0F07D06868C0F3D8
:100DC0008100022809D16868C00306D4286880071A
:100DD00014D52069012808D110E02069B0B1C6F807
:100DE0000090FFF76DFC074605E00AE1FFF768FC9D
:100DF000C01B0228C4D828688007F7D52868616915
:100E000020F0F80040EAC10028600DE0C6F800803C
:100E1000FFF756FC074604E0FFF752FCC01B022810
:100E200023D828688007F7D4207800072CD5794884
:100E3000A169D9B1C0F80090FFF742FC074604E071
:100E4000FFF73EFCC01B02280FD8686A8007F7D561
:100E500071484FF4FA510068B0FBF1F0009000BF08
:100E60000098411E0091FAD20EE080E0C0F80080A8
:100E7000FFF726FC074604E0FFF722FCC01B022810
:100E800075D8686A8007F7D42078400760D5E8698C
:100E90000027C00008D4E86940F08050E861E869A4
:100EA000012700F0805000905C480168C90513D408
:100EB0000168834641F480710160FFF701FC8246BE
:100EC00006E000BFFFF7FCFBA0EB0A0064284ED849
:100ED000DBF80000C005F5D5E06801280AD008B1AC
:100EE000052813D0286A20F001002862286A20F023
:100EF000040002E0286A40F001002862E06841F244
:100F0000883B98B1FFF7DCFB82460BE0286A40F093
:100F100004002862EEE700BFFFF7D2FBA0EB0A0156
:100F200059455AD8286A8007F6D50CE0FFF7C8FB68
:100F3000824605E0FFF7C4FBA0EB0A0159454CD8F7
:100F4000286A8007F6D41FB1E86920F08050E86174
:100F5000E06988B36968C1F38101022944D002289D
:100F6000C6F8608004D0FFF7ABFB044638E034E0FD
:100F7000FFF7A6FB074604E0FFF7A2FBC01B022811
:100F80002BD828688001F7D4206AB0F5803F05D1BE
:100F90006868A16820F4003008436860D4E908015B
:100FA0000843696821F4741108436860C6F86090CA
:100FB000FFF786FB044606E025E000BFFFF780FB55
:100FC000001B022809D828688001F7D51BE000BF64
:100FD000FFF776FB001B022802D90320BDE8F88F3B
:100FE00028688001F4D40EE00128F7D06868226AEE
:100FF00000F48031914204D1616A00F4701088429B
:1010000001D00120EAE70020E8E7000000100240DC
:101010000000424280044242340000200070004040
:1010200010B5401EB0F1807F01D3012010BD4FF0FC
:10103000E02460610F21601701F0E3FA0020A06155
:1010400007202061002010BD10B590F83C20012A37
:1010500022D0012280F83C20CA688C6822F44072B9
:1010600022434C6822F4806222430C6822F400621E
:1010700022430C6922F4805222434C6922F400522C
:101080002243C969002322F480420A4301684A646A
:1010900080F83C30002010BD022010BD70B590F8E3
:1010A0003C20012A26D0012480F83C40022280F80E
:1010B0003D2003685A689D6822F070060A68324332
:1010C0005A600D4B02689A4208D0B2F1804F05D0A9
:1010D0000A4B9A4202D00A4B9A4204D1496825F041
:1010E00080031943916080F83D40002180F83C1056
:1010F000084670BD022070BD002C01400004004075
:10110000000800402DE9F0410D46040003D094F89A
:101110003D0018B108E00120BDE8F081002084F80E
:101120003C00204600F040F8022084F83D00206892
:10113000816844F2070291438160211D206801F01B
:1011400065F8226890689169166A2B68AF69034355
:1011500040F20330814341EA0721A868EF69084360
:101160004FF6FC418843E96840EA072001432869BB
:101170002F6A000140EA0730084369686D6926F06C
:10118000220646EA0515294393602268906154F8C7
:10119000460B0162012004F81F09E0752076E07615
:1011A0002077A0750020B7E700B585B00021009139
:1011B000019102910391026818491948B2F1804FD8
:1011C00019D0184B9A4214D1CA6942F00202CA617E
:1011D000CA6902F0020204928A6942F004028A613A
:1011E000896901F004010491C02100916946FFF76B
:1011F0006DF905B000BDCA6942F00102CA61CA6951
:1012000002F0010204928A6942F004028A6189694B
:1012100001F0040104910321E7E7000000100240FF
:10122000000801400004004070B590F83E6004469C
:1012300090F83F5090F8423090F84320022021B1BE
:1012400004290ED0012E1BD114E0012E18D1012B40
:1012500016D184F83E0084F8420001220021206863
:1012600020E0012D0CD1012A0AD184F83F0084F836
:10127000430014E0012D03D1012B01D1012A01D03B
:10128000012070BD84F83E0084F83F0084F84200DD
:1012900084F8430001220021206800F0F3FF0122BE
:1012A0000421206800F0EEFF2068016841F0010190
:1012B0000160002070BD000030B585B000210091B4
:1012C0000191029103910068104988421CD1104895
:1012D000816941F0040181618069022400F0040009
:1012E00004904FF48060CDE900040320094D039081
:1012F00069462846FFF7EAF8A002CDE900046946EE
:1013000028460394FFF7E2F805B030BD002C0140F9
:10131000001002400008014070B5044690F83C00FF
:1013200000260D4601280FD0012084F83C006AB148
:10133000042A1DD0082A2FD00C2A3FD001260020D5
:1013400084F83C00304670BD022070BD206800F07B
:10135000A7FF2068816941F00801816120688169E7
:1013600021F004018161206881692A69114311E03B
:10137000206800F0BDFF2068816941F4006181614F
:101380002068816921F480618161206881692A690E
:1013900041EA02218161D2E7206800F0D5FF206890
:1013A000C16941F00801C1612068C16921F00401EF
:1013B000C1612068C1692A69114311E0206800F009
:1013C000EFFF2068C16941F40061C1612068C16913
:1013D00021F48061C1612068C1692A6941EA022162
:1013E000C161ACE710B5040003D094F83D0010B122
:1013F00007E0012010BD002084F83C00204600F0EA
:101400001FF8022084F83D00211D206800F0FEFE38
:10141000012084F8460084F83E0084F83F0084F8F8
:10142000400084F8410084F8420084F8430084F8C6
:10143000440084F8450084F83D00002010BD000001
:1014400008B500680649884208D10648816941F418
:1014500000618161806900F40060009008BD0000B7
:10146000002C01400010024010B50446022249B190
:1014700004290ED0082913D094F84100012816D071
:10148000012010BD94F83E000128F9D184F83E20D7
:101490000FE094F83F000128F2D184F83F2008E0E3
:1014A00094F840000128EBD184F8402001E084F852
:1014B00041200122206800F0E5FE0F4920688842A3
:1014C00003D1426C42F4004242642068884208D052
:1014D000B0F1804F05D00949884202D008498842BE
:1014E00004D1816801F00701062903D0016841F0A9
:1014F00001010160002010BD002C014000040040EB
:101500000008004070477047F8B501680446086855
:10151000CA684B6910F00F0F4FF0000559D003F067
:10152000010602F49077374365D0C10705D0D10595
:1015300003D5616C41F001016164410705D5D9070C
:1015400003D0616C41F002016164810705D5D907C0
:1015500003D0616C41F004016164010707D502F01A
:101560002001314303D0616C41F008016164616C7A
:1015700000293AD0800604D5900602D5204600F016
:1015800060FF20684069616CC0F38010090700D4D7
:1015900060B3204600F02EFF20684069400621D548
:1015A0002068143050E8001F21F0400140E800128C
:1015B000002AF5D1E06BA8B16D494163E06BFEF7FD
:1015C00027FF002811D0E06B416B01B0BDE8F0406F
:1015D000084783060FD593060DD52046BDE8F84091
:1015E00000F02FBF2046FFF78EFFF8BD2046FFF723
:1015F0008AFF6564F8BD266B2023012E7CD1C606C8
:101600007AD5D60678D508684868009048694FF0C2
:101610000206400640D5E16B086840680004000CF3
:10162000E8D0A28D8242E5D9E085886920282DD0B6
:1016300020680C3050E8001F21F4807140E800124F
:10164000002AF5D12068143050E8001F21F0010174
:1016500040E80012002AF5D12068143050E8001F3D
:1016600021F0400140E80012002AF5D184F8423010
:10167000256320680C3050E8001F21F0100140E87D
:101680000012002AF5D1E06BFEF79FFE6663A08D85
:10169000E18D401A81B22AE0A08DE18D401A81B21D
:1016A000E08D0028A6D00029A4D022680C3252E890
:1016B000000F20F4907042E80007002FF5D1206859
:1016C000143050E8002F22F0010240E80027002FDC
:1016D000F5D184F84230256320680C3050E8002FA3
:1016E00022F0100240E80023002BF5D1666320466B
:1016F000FFF708FFF8BDFFE705062BD5150629D52E
:1017000094F841002128F5D1A068B0F5805F01D19F
:101710002069B0B1206A411C2162216800784860CC
:10172000E08C401E0004000CE084E3D12068C16816
:1017300021F08001C1602068C16841F04001C160B2
:10174000D8E7206A0088C0F308004860206A801C3F
:101750002062E5E74006CDD55006CBD5CA682046C5
:1017600022F04002CA6084F8413000F0D5F8C1E7A9
:10177000E523000870B5040004D094F8410000256A
:1017800010B106E0012070BD84F84050204600F002
:1017900023F8242084F841002068C16821F4005116
:1017A000C160204600F0AEFE2068016921F490413E
:1017B00001612068416921F02A0141612068C16806
:1017C00041F40051C1606564202084F8410084F830
:1017D00042006563002070BD30B585B000240094E0
:1017E0000194029403940068184988422BD1184848
:1017F000C16941F40031C161C16901F40031049152
:10180000816941F0040181618069124D00F004009A
:101810000490042000900220019003200390694668
:101820002846FEF753FE0820CDE900046946284605
:101830000294FEF74BFE002211462620FFF752F9D4
:101840002620FFF741F905B030BD000000440040FC
:10185000001002400008014090F84230202B01D0D7
:101860000220704721B11AB10023036300F0A6BE25
:10187000012070472DE9F047044601221F49204806
:10188000FFF7EAFF1E4DAC4233D11C481B4C1D4EE6
:101890000078A41E1C4FDFF87480DFF87490DFF826
:1018A00074A0302804D0312805D0322823D01CE081
:1018B000A068401C01E0A068401EA06001F00DFA85
:1018C0000022334601F020FA00223B4601F080F866
:1018D00042464B4601F018FA02460B46002051469C
:1018E00001F076F801F0CCF9208029686FF0200033
:1018F0000860BDE8F08700F017FFFCE71E0000203D
:101900003C0600200000244000A07B40EC51B81EA3
:10191000856B3440000059407047FEE701684A6912
:10192000D24352050FD46FF480624A61002140F81F
:10193000301F202242738173026942F00402026167
:10194000017301207047002070470000F8B504467D
:10195000C06A1E460D461746082807D0012805D044
:1019600010F5803F02D0206B122804D12068016856
:1019700041F480710160134600224FF001112046AE
:10198000009600F05DF840B120680068C00502D5FF
:101990004FF4007020640320F8BD2069B0F5804F3B
:1019A0000ED00620216800EAD51040F0F000086152
:1019B00033463A460B49204600F08AF878B902E0EF
:1019C00005F0FE0000E0E8B22168086105493346F1
:1019D0003A46891F204600F07BF80028DCD0012021
:1019E000F8BD00000800010070B516460D4604461B
:1019F0001EE02046FFF792FF08B1012070BD681C71
:101A000016D0FEF75DFE801BA84200D885B920687D
:101A10004069C04340070BD5002044F8300F202117
:101A20006173A073216941F0200121612073E4E713
:101A300020684069C0434007DBD4002070BD00002F
:101A40002DE9F047984617460D460446C1F3074670
:101A5000DDF820902AE000BFB8F1FF3F26D0FEF766
:101A60002FFEA0EB0901414502D8B8F1000F1DD1AE
:101A70002068012E16D0806925EA00000004000CC1
:101A800012D00020B84211D1002044F8300F20219C
:101A90006173A073216941F020012161207301204D
:101AA000BDE8F0874069E7E70120EBE72068012EF9
:101AB0000AD0806925EA00000004000C06D000204E
:101AC000B842C9D00020EBE74069F3E70120F7E70F
:101AD0002DE9F047984616460D4604464FF000099A
:101AE0004FF0200AC1F3074723E020684069C04354
:101AF000400515D42068016841F400710160216837
:101B00006FF480604861C4F8309084F83DA084F898
:101B10003E90216C41F00401216484F83C9021E066
:101B2000701C06D0FEF7CCFDA0EB0800B04203D835
:101B300016B1012F1FD021E02068012F15D0806938
:101B400025EA00000004000C18D000BF44F8309FC4
:101B500084F80DA084F80E90216941F020012161E4
:101B600084F80C900120BDE8F087406925EA000068
:101B70000004000CEAD12068406901E02068806917
:101B800025EA00000004000CAFD1ECE770B5164662
:101B90000D4604461EE02046FFF7C0FE08B10120B6
:101BA00070BD681C16D0FEF78BFD801BA84200D8C4
:101BB00085B920684069C04300060BD5002044F871
:101BC000300F20216173A073216941F02001216150
:101BD0002073E4E720684069C0430006DBD400209E
:101BE00070BD000070B586B000241C4800940194BC
:101BF00002940394816941F020018161816901F0BF
:101C000020010491816941F004018161816901F041
:101C100004010491816941F0080181618069104EDD
:101C200000F008004FF47045049000222946304629
:101C3000FEF741FD1B20CDE90004694630460294C1
:101C4000FEF744FC01200095CDE901040220039039
:101C500069463046FEF73AFC06B070BD00100240FF
:101C6000000C01400D4810B50B4901600C49416062
:101C700000214FF480428160C0E90312416181611B
:101C8000C1610162FEF722FD002803D0BDE81040CB
:101C9000FEF799BB10BD000000540040BC040020BA
:101CA000801A06000D4810B50B4901600C494160CF
:101CB00000214FF480428160C0E9031241618161DB
:101CC000C1610162FEF702FD002803D0BDE81040AB
:101CD000FEF779BB10BD0000005800401005002041
:101CE000A086010010B592B000240F941C21684614
:101CF0001094FEF7D0FA202107A8FEF7CCFA24486A
:101D0000224901604721C0E901146321C0E903149D
:101D100044618461FFF766FB08B1FEF754FB0F9442
:101D20000FA91B481094FFF7B9F908B1FEF74BFB58
:101D30006020CDE9000402940394049405940822E1
:101D4000694613480694FFF7E7FA08B1FEF73BFB34
:101D50000C2269460E48FFF7DFFA08B1FEF733FBA5
:101D60000794089409944FF400500A94CDE90B406D
:101D700007A907480E94FFF767F908B1FEF723FBA0
:101D80000348FFF799FA12B010BD0000002C014083
:101D90006405002010B58CB024216846FEF77BFA5C
:101DA0000024154809944FF080410A9401600321F2
:101DB000C0E901144FF6FF72C0E903248461009169
:101DC0000120CDE9014003940494CDE90540079436
:101DD000694609480894FFF795F908B1FEF7F3FA48
:101DE000099409A904480A94FFF758F9002801D07A
:101DF000FEF7E9FA0CB010BDAC05002010B58CB0B0
:101E000024216846FEF747FA00241648099414492D
:101E10000A9401600321C0E901144FF6FF72C0E982
:101E20000324846100910120CDE9014003940494CE
:101E3000CDE90540079469460A480894FFF762F91E
:101E400008B1FEF7C0FA099409A906480A94FFF7F9
:101E500025F9002801D0FEF7B6FA0CB010BD00003D
:101E600000040040F40500200C4810B50A49016048
:101E70004FF416514160002181600C22C160C0E91D
:101E800004128161C161FFF775FC002803D0BDE831
:101E90001040FEF798BA10BD004400403C060020F8
:101EA000FEE7FEE710B5AE2000F090F8022000F04B
:101EB0008DF8102000F08AF8402000F087F8B0205C
:101EC00000F084F8812000F081F8CF2000F07EF847
:101ED000A12000F07BF8A62000F078F8A82000F000
:101EE00075F83F2000F072F8AD2000F06FF88B20FD
:101EF00000F06CF8332000F069F8C82000F066F8B4
:101F0000D32000F063F8002000F060F8D52000F046
:101F10005DF8C02000F05AF8D92000F057F81F20D3
:101F200000F054F8DA2000F051F8122000F04EF8DA
:101F3000DB2000F04BF8402000F048F800F008F8F3
:101F400000F00CF9BDE81040AF2000F03FB80000F1
:101F50004FF480610148FEF77CB90000B900002011
:101F60003CB51C78059D203ACDE900455D68E41D2F
:101F70005B78E408544303FB045200F087F83CBD4F
:101F80002DE9F8411E46154688460446079F09E09C
:101F90003346414620460097FFF7E2FF70786D1CFC
:101FA0002044C4B22A78002AF2D1BDE8F8810000AA
:101FB00008B54FF0FF3200920B46024678210248E6
:101FC000FEF748FC08BD0000BC0400200249487030
:101FD00002210148FFF7ECBF1A0000202DE9FC4167
:101FE00080460720CDE9000301F00704CD0816461E
:101FF00002FA04F01F46C2B223464146284600F0CA
:1020000089F8002C0CD0601EC0B2CDE90007C4F1E5
:10201000080026FA00F2681C0023414600F07AF816
:10202000BDE8FC812DE9FC4301F007061446CD080C
:102030009846814601F0070106EB080204FA01F018
:10204000099F082A16D90721CDE90017C2B23346E5
:102050004946284600F05EF808EB06000938C0B291
:10206000CDE90007C6F1080024FA00F2681C00233D
:10207000494607E0521ED1B2CDE90017C2B233463D
:102080004946284600F046F8BDE8FC832DE9FF4F9D
:1020900082B01D460F989346C70800F00700884697
:1020A0000026019018E0029800240BEB060A00EBD2
:1020B00006090DE004FB05F0109B10F80A2008EB60
:1020C000C400C1B209F0FF00FFF788FF641CE4B24E
:1020D000BC42EFD3761CF6B2AE42E4D3019800289E
:1020E00015D005FB07F6002408EBC7070DE0109894
:1020F0000090311902981BF801202044F9B2C0B2B7
:10210000019BFFF78FFF641CE4B2AC42EFD306B033
:10211000BDE8F08FF0B50828DDE9056419D2802903
:1021200017D20CB1D243D2B2FF25761C05FA06F6BF
:10213000C3F10803084F46EA0204DD4007EBC0176D
:10214000044B785CB2432C43AA4320401A701043DE
:102150007854F0BD18000020B900002070B5104D73
:1021600040200024287005F1810600BF04F1B00072
:10217000C0B2FFF72BFF0220FFF728FF1020FFF768
:1021800025FF06EBC4118022681CFEF71DF8812193
:102190000348FFF70DFF641CE4B2082CE6D370BDC2
:1021A0003800002070477047FEF736BC30B58FB05E
:1021B00028216846FEF76FF814210AA8FEF76BF88D
:1021C00001210804CDE900100024029402250491A5
:1021D000CDE907504FF4E01009906846FEF790FDF6
:1021E00008B172B6FEE70F20CDE90A054FF4806012
:1021F000CDE90C4002210AA80E94FEF7A5FC0028A8
:1022000001D072B6FEE70FB030BD7047F0B502687E
:10221000194B1A4C1A4D4FF08047984205D0B842DE
:1022200003D0A04201D0A84203D122F070064A6830
:102230003243984205D0B84203D0A04201D0A84210
:1022400003D122F44074CA6822434C6922F0800210
:10225000224302608A68C2620A688262984201D19F
:1022600009690163012141610169C90703D001695D
:1022700021F001010161F0BD002C0140000400408B
:102280000008004010B501F01F030121046A9940C5
:102290008C430462016A9A401143016210BD000040
:1022A00030B5036A026A22F0010202624268846960
:1022B00024F073050C682C4323F002058B682B4334
:1022C0000A4DA8420BD123F00805CB6822F44072D6
:1022D0002B434D6923F0040315438A692A43426066
:1022E000846149684163036230BD0000002C0140F5
:1022F00030B5026A036A23F01003036243688469FD
:102300000D6824F4E64444EA05248D6822F0200296
:1023100042EA05120B4DA8420ED1CD6822F0800290
:1023200042EA05124D6923F4406343EA85038D694F
:1023300022F0400243EA8503436084614968816377
:10234000026230BD002C014030B5036A026A22F4FB
:10235000807202624268C46923F4007324F073053A
:102360000C682C438D6843EA05230C4DA8420ED11E
:10237000CD6823F4006343EA05234D6922F44052FB
:1023800042EA05128D6923F4806342EA0512426035
:10239000C4614968C163036230BD0000002C014084
:1023A00030B5046A026A22F4805202624268C3694C
:1023B0000D6823F4E64343EA05238D6824F40054B2
:1023C00044EA0534064DA84204D14D6922F4804206
:1023D00042EA85124260C36149680164046230BD0B
:1023E000002C014010B5406A0021C185C184FFF76F
:1023F0008AF810BD01680C3151E8002F22F4907268
:1024000041E80023002BF5D10168143151E8002F79
:1024100022F0010241E80023002BF5D1016B0129D4
:1024200009D101680C3151E8002F22F0100241E877
:102430000023002BF5D1202180F8421000210163F8
:10244000704708B590F84210222901D0022008BD3B
:1024500082684FF480539A4201D1016921B1816AA7
:102460009A421BD04AB10AE00268816A5268C2F3FC
:1024700008020A80816A891C08E0026972B1026858
:10248000526802F07F020A70816A491C8162C18D24
:10249000491E0904090CC18503D01BE0026852687B
:1024A000F1E70168CA6822F02002CA600168CA68C0
:1024B00022F48072CA6001684A6922F001024A610E
:1024C000202180F8421000214163026B012A03D0D1
:1024D000FFF7D0F9002008BD016301680C3151E815
:1024E000002F22F0100241E80023002BF5D10168F3
:1024F0000A68D20602D50A6849680091818DFFF703
:1025000001F8E7E770B5044600680169E26821F464
:102510004051114301612169A06808436169084382
:102520002168CA6841F20C639A430243CA6020687A
:102530004169A26921F44071114341611E4920683B
:10254000884202D1FEF7A6FB01E0FEF793FB00EB09
:10255000C00101EB0012606864218000B2FBF0F35F
:10256000B3FBF1F36FF018067343B2FBF0F5B2FB67
:10257000F0F605EB8305322303EB0515B5FBF1F50A
:10258000B6FBF1F605F0F00505EB0615B2FBF0F62B
:10259000B2FBF0F0B0FBF1F06FF01802504306EB25
:1025A000800003EB0010B0FBF1F0216800F00F0099
:1025B0002844886070BD0000003801408162828537
:1025C000C28500214164222180F84210016921B1B5
:1025D0000168CA6842F48072CA6001684A6942F0C0
:1025E00001024A610068C16841F02001C160002019
:1025F000704700000148FEF787BF00003C0600203E
:10260000FEE70907090E002804DB00F1E02080F84E
:102610000014704700F00F0000F1E02080F8141D56
:102620007047000010B5154C00224FF48051204631
:10263000FEF741F8012251032046FEF73CF8012243
:1026400091032046FEF737F800224FF40041204660
:10265000FEF731F80A4C0020216800F0EBF8014643
:10266000082000F043F90120216800F0E3F801465A
:10267000BDE810400C2000F039B90000000C01400A
:102680002400002008B5FEF7CFF9FFF78FFDFFF714
:10269000A9FAFFF77FFBFFF7B1FBFFF7E5FBFFF7B9
:1026A000E1FAFFF7FFFAFFF71DFB00F011F900F068
:1026B000EDF86420FDF7F8FEFFF7F4FBFFF748FCA8
:1026C0000020074B07A201460090FFF759FCFFF7D7
:1026D00045FD012205490648FFF7BEF8FEE7000068
:1026E0002C31000872656164790000001E00002032
:1026F0003C06002010B50B4C012211032046FDF7CB
:10270000DAFF012251032046FDF7D5FF0122910394
:102710002046FDF7D0FF20460122BDE81040D1033E
:10272000FDF7C9BF000C014010B5414C0221204605
:10273000FDF7BCFF70B908212046FDF7B7FF48B987
:1027400001212046FDF7B2FF20B910212046FDF7F8
:10275000ADFF30B101212046FDF7A8FF012804D0CC
:1027600015E0BDE81040FFF7C5BF10212046FDF77A
:102770009DFF01280BD102212046FDF797FF30B9BC
:1027800008212046FDF792FF08B9FFF74BFF022111
:102790002046FDF78BFF01280CD108212046FDF7CC
:1027A00085FF38B910212046FDF780FF10B91E20A3
:1027B00000F0AEF801212046FDF778FF01280CD18A
:1027C00008212046FDF772FF38B910212046FDF799
:1027D0006DFF10B90A2000F09BF808212046FDF794
:1027E00065FF01280CD102212046FDF75FFF38B9B3
:1027F00001212046FDF75AFF10B91E2000F0B8F85D
:1028000010212046FDF752FF012810D10221204659
:10281000FDF74CFF00280AD101212046FDF746FFB5
:10282000002804D1BDE810400A2000F0A1B810BD76
:10283000000C014010B5124BD0B112480068406A3C
:1028400000B258800A1A996802EB42004B88D31AEA
:1028500003EB430300EB83008B884C88644202EB5C
:102860004404234400EB43004B888B804A8010BD16
:1028700005480068406A00B218800A1A5968E3E700
:1028800000000020F4050020AC05002010B53C211C
:102890000B48FEF7C9FC3C210A48FEF7C5FC0B4873
:1028A000094943680A881A80826809881180426849
:1028B00000215180918080684180818010BD00009E
:1028C000AC050020F40500202400002000000020BA
:1028D00010B508210448FEF7C7FDBDE810400C21E3
:1028E0000148FEF7C1BD000064050020074A1268D8
:1028F00028B1042805D0082805D011647047516319
:10290000704791637047D1637047000064050020F1
:1029100070B5154D044600224FF480512846FDF74E
:10292000CAFE012251032846FDF7C5FE012291038C
:102930002846FDF7C0FE00224FF400412846FDF76F
:10294000BAFE0A4D01202968FFF774FF011908201B
:10295000FFF7CCFF00202968FFF76CFF011BBDE8E3
:1029600070400C20FFF7C2BF000C01402400002083
:1029700070B5154D044600224FF480512846FDF7EE
:102980009AFE012251032846FDF795FE012291038C
:102990002846FDF790FE00224FF400412846FDF73F
:1029A0008AFE0A4D00202968FFF744FF011908201C
:1029B000FFF79CFF01202968FFF73CFF011BBDE8E2
:1029C00070400C20FFF792BF000C01402400002053
:1029D0002DE9C04130B4DFF8A0C23CEA111418BFA1
:1029E0003CEA131400F0EC8081EA03051CEA1114A0
:1029F00044EAD57418BF1CEA131500F0C780A4EB95
:102A000005044FF0004545EAC12145EAC32341EAE8
:102A1000505143EA525304F17F74994204F5003453
:102A20004FEAC0204FEAC22208BF904200F09C80CB
:102A30004FEA13650FF24016765D4FEA134506FB29
:102A400005F7C7F1807706FB07F74FEAD737A7FBF3
:102A500003687642C8F58038A7FB06CE38BFA8F1D8
:102A6000010807FB08E64FF0000EA6FB028CE6FB10
:102A700003CEDCF1000CCEF1004E38BFAEF1010EFA
:102A8000A6FB0C584FF000074FF00005E6FB0E8741
:102A9000A1FB08C6A0FB07CE16EB0E0645F100050C
:102AA000E1FB076515F1E04E7EBFA4F580345FEAD7
:102AB00046066D4116F1800745F100054FEA1727DC
:102AC0004FEA066647EA0567A6F1DE46B6F1805F83
:102AD0004FEA15251FD9384624F0010C05EBC471C7
:102AE000BCF1FE6F01EB0C1102D8F0BCBDE8008117
:102AF00024425CBF01F5801E9EEAC47F02D4F0BC74
:102B0000BDE80081244238D4F0BCA1F1C041BDE849
:102B1000004100F0F1B94FEAD22242EA43524FEAB3
:102B2000D323A7FB02864FEAD02040EA415007FB9F
:102B300003661EEA0E0F4FEAD12105FB026658BF5D
:102B4000A6EB0056B6EB00564FEA520E4EEAC37E95
:102B500018EB0E0E56EB530EBDD518EB02085E4176
:102B60007F1C55F10005B6E74FF480154FF00007C4
:102B70004FF000064FF00008ADE7F0BC4FF000004A
:102B800001F1C04101F00041BDE8008111EA0C1FD4
:102B90000CEA131500D00CE013EA0C1F00F025809E
:102BA0004FF00000F0BC81EA030101F00041BDE8F4
:102BB0000081F0BCBDE8004181EA030100F09CB94E
:102BC000F0BCBDE8004170B500F048F9097EFC3E5C
:102BD00000F007B881EA03014FF0000001F0004166
:102BE000704781EA030100F087B9F0BCBDE80041FD
:102BF0004FF0000021497047FFFDFBF9F7F5F4F2B3
:102C0000F0EEEDEBE9E8E6E4E3E1E0DEDDDBDAD887
:102C1000D7D5D4D3D1D0CFCDCCCBCAC8C7C6C5C4E5
:102C2000C2C1C0BFBEBDBCBBBAB9B8B7B6B5B4B3FC
:102C3000B2B1B0AFAEADACABAAA9A8A8A7A6A5A4E7
:102C4000A3A3A2A1A09F9F9E9D9C9C9B9A999998AB
:102C50009797969595949393929191908F8F8E8E4E
:102C60008D8C8C8B8B8A89898888878786858584DB
:102C700084838382828181800000FF070000F87FC7
:102C80004FEA1153A3F58063D3F11E03A8BFD3F11C
:102C9000200C08DB4FF0004242EAC12252EA5052B7
:102CA00032FA03F0704709420BD4102BC4BF002046
:102CB000704703F5787CBCF1FF3F05D04FF0FF3043
:102CC00070474FF00000704770B500F0C7F800BFC4
:102CD0004992248000207047F0E710F0004248BF7E
:102CE0004042B0FA80F310FA03F10AD0C3F11D0399
:102CF00003F580634FEA415002EB035202EBD1210E
:102D000070474FF000007047DFF848C170B51CEA0B
:102D1000111E1EBF1CEA13159EEA0C0F95EA0C0F3C
:102D200000F06F8081EA030423EA4C134EEAD47E5C
:102D300021EA4C1141F4801143F48013AE44A1FB0D
:102D4000024CA0FB0365AEF17F7E361955EB0C05F6
:102D5000A1FB034C4CF10003A0FB021C16EB0C067C
:102D6000654153F10003094218BF46F0010613F410
:102D7000007F0BD14FEA03314FEA0530340341EABB
:102D8000155140EA16506FF003020AE04FEAC321E2
:102D90004FEAC520F40241EA555140EA56506FF01F
:102DA000020202EB2E4201EB025585EACE710AD0F7
:102DB0005FEA440C18BF24F0004450F1000041F1D8
:102DC000000120EAD47040F2FE7C624500D270BD62
:102DD000A84214BF4FF080444FF04044002E08BF7B
:102DE0000024BEF1806FA8BFA1F1C041BDE87040D2
:102DF00080F282804FF0000001F1C04101F00041FB
:102E000070479EEA0C0F0CEA131518BF95EA0C0FD9
:102E100006D04FF0000081EA030E0EF0004170BDB5
:102E200000F01CF88900013E00F007B800F009B876
:102E30004FEA430C5FEA5C5C08D081EA030100F0D2
:102E40005BB84FEA410C5FEA5C5CF6D14FF00000E2
:102E5000014970470000FF070000F87F0EF1020EE5
:102E60002EF0030E5EF8046B364205D4012A43EBC4
:102E7000030515F5001F12D8012841EB010C1CF5C4
:102E8000001F0CD80ED14FEAD17C15F5001F0CEBBA
:102E90004C0C0CF1020C08BF4CEBD37C04E04FF05F
:102EA000080C01E04FEAD37C0CEB4C0526FA05F642
:102EB00006F00706B6F1040C06D20EEB860CBDE850
:102EC00070404CF0010C6047DFE80CF0090B020287
:102ED0004FF000414FF00000A1F5002170BD1946F0
:102EE0001046012851EB010418BFD4F5001484BF2B
:102EF000002001F0004170BD0808A0F500114FEA64
:102F0000310170470000000000000000002F0000A9
:102F100000000700070000147F147F1400242A7F9C
:102F20002A1200626408132300364955225000001B
:102F30000503000000001C224100000041221C008B
:102F40000014083E08140008083E0808000000A00D
:102F50006000000808080808000060600000002009
:102F600010080402003E5149453E0000427F4000E7
:102F7000004261514946002141454B31001814126D
:102F80007F10002745454539003C4A49493000013A
:102F90007109050300364949493600064949291E89
:102FA00000003636000000005636000000081422EB
:102FB00041000014141414140000412214080002EB
:102FC0000151090600324959513E007C1211127C10
:102FD000007F49494936003E41414122007F41413D
:102FE000221C007F49494941007F09090901003E2F
:102FF0004149497A007F0808087F0000417F41006D
:10300000002040413F01007F08142241007F4040E2
:103010004040007F020C027F007F0408107F003ECA
:103020004141413E007F09090906003E4151215EB0
:10303000007F091929460046494949310001017FAD
:103040000101003F4040403F001F2040201F003F43
:103050004038403F006314081463000708700807F5
:1030600000615149454300007F41410000552A5508
:103070002A55000041417F00000402010204004083
:1030800040404040000001020400002054545478A5
:10309000007F4844443800384444442000384444C5
:1030A000487F00385454541800087E090102001863
:1030B000A4A4A47C007F080404780000447D4000A0
:1030C000004080847D00007F102844000000417F84
:1030D0004000007C04180478007C08040478003860
:1030E0004444443800FC242424180018242418FCE8
:1030F000007C0804040800485454542000043F4451
:103100004020003C4040207C001C2040201C003C13
:103110004030403C004428102844001CA0A0A07C63
:10312000004464544C44141414141414080600008D
:10313000042F0008010202030405060708090A0B10
:103140000C0D0E0F10100000000000000000010226
:103150000304060708090000000001020304000040
:10316000803100080000002038000000280100081D
:10317000B831000838000020B00C000044010008FD
:10318000000000000C0000201200002000000000E1
:10319000000000000000000000000000000000002F
:1031A00000000000320000000100000010000000DC
:0831B0000000000000127A008B
:04000005080000ED02
:00000001FF
